:020000040800F2
:10000000580B002091010008D71C0008A31A000813
:10001000D51C0008AB0500084124000800000000C2
:100020000000000000000000000000004B2000085D
:10003000550800080000000049200008A120000821
:10004000AB010008AB010008AB010008AB010008E0
:10005000AB010008AB010008AB01000875080008FF
:10006000AB010008AB010008AB010008AB010008C0
:10007000AB010008AB010008AB010008AB010008B0
:10008000AB010008AB010008AB010008AB010008A0
:10009000AB010008AB010008AB010008AB01000890
:1000A000AB010008AB010008AB010008AB01000880
:1000B000AB010008AB010008AB010008AB01000870
:1000C000AB010008AB010008AB010008AB01000860
:1000D000AB010008AB01000885230008AB01000854
:1000E00057080008AB010008AB01000800F002F857
:1000F00000F03FF80AA090E8000C82448344AAF183
:100100000107DA4501D100F034F8AFF2090EBAE880
:100110000F0013F0010F18BFFB1A43F0010318473B
:100120004C4000006C400000103A24BF78C878C1F1
:10013000FAD8520724BF30C830C144BF04680C60ED
:10014000704700000023002400250026103A28BF35
:1001500078C1FBD8520728BF30C148BF0B60704739
:10016000642900F05D80002070471FB51FBD10B5E9
:1001700010BD00F0E0F91146FFF7F7FF02F072F949
:1001800000F0FEF903B4FFF7F2FF03BC00F006FA3B
:100190000948804709480047FEE7FEE7FEE7FEE71B
:1001A000FEE7FEE7FEE7FEE7FEE7FEE70448054957
:1001B000054A064B7047000003210008ED000008C7
:1001C00058050020580B0020580700205807002031
:1001D000B2F120030AD5C2F1200320FA02F001FA9D
:1001E00003F321FA02F140EA0300704721FA03F019
:1001F0004FF00001704700000FB41CB5074B06AA72
:100200007B4469460090059800F07DF9002069461E
:1002100000F08CF91CBC5DF814FB00002903000001
:100220002DE9F0410646002410687529314616A5CF
:1002300010D0AFF30080002802DA404213A507E097
:1002400031688A0701D512A502E0490704D511A536
:10025000012401E0AFF3008000210A2206F1240707
:1002600009E0B0FBF2FCB0FBF2F302FB1C00303003
:1002700078541846491C0028F3D123462A463046B4
:10028000BDE8F04100F0E1B8000000002D000000E2
:100290002B000000200000002DE9F0410F4605462C
:1002A000002028622846E968884770B3252805D0D1
:1002B000D5E901219047286A401CF2E7E968284601
:1002C000002688476C2804460AD0682C08D04C2C9D
:1002D00035D06A2C31D0742C31D07A2C2FD016E046
:1002E000E968064628468847B042044608D16C2E85
:1002F00023D04FF480662846E9688847044606E024
:100300006C2E03D04FF4807601E01EE04026E4B16D
:10031000A4F14100192802D8203446F400663A4678
:10032000214628462E60FFF71BFF60B1012808D048
:10033000FF1D27F007070837B4E78026DBE7002614
:10034000D9E73F1DAEE72046B2E7286ABDE8F08155
:1003500030B505460B462A4613F8014B12F8010B3F
:1003600008B1A042F8D01CB1002802D06D1CF1E702
:10037000284630BD10B5431C02E010F8011B71B1D6
:100380008107FAD14FF0013202C88C1A8C4314EA6B
:10039000C211F9D0C01A0A0603D0C01E10BDC01A7F
:1003A00010BD0A0401D0801E10BD0902FCD0401E01
:1003B00010BD4FF000020429C0F0128010F0030CB1
:1003C00000F01B80CCF1040CBCF1020F18BF00F848
:1003D000012BA8BF20F8022BA1EB0C0100F00DB8F7
:1003E0005FEAC17C24BF00F8012B00F8012B48BF55
:1003F00000F8012B70474FF0000200B513469446F9
:100400009646203922BFA0E80C50A0E80C50B1F16C
:100410002001BFF4F7AF090728BFA0E80C5048BF80
:100420000CC05DF804EB890028BF40F8042B08BF1E
:10043000704748BF20F8022B11F0804F18BF00F81A
:10044000012B70477047704770472DE9F0470D4604
:1004500099469246044600F124080168880604D5AE
:10046000E06921F01001216000E00120A84201DDD7
:10047000471B00E00027A1697A1902EB0900081A5E
:10048000A0612078C00602D42046AFF30080002689
:1004900008E0D4E901211AF806009047206A401CC0
:1004A000761C20624E45F4DB2078C0060AD5204633
:1004B000AFF3008006E0D4E9012130209047206AA4
:1004C000401C2062381EA7F10107F4DC07E0D4E9E4
:1004D000012118F805009047206A401C2062281E60
:1004E000A5F10105F3DC2046AFF30080207800067B
:1004F00002D50220BDE8F0870120FBE701694A1C14
:1005000002610878704700B58FB0CDE90131002154
:10051000059105497944CDE9031011466846FFF776
:10052000BBFE0FB000BD0000E5FFFFFF0A6802F848
:10053000010B0A607047754600F02CF8AE460500C6
:100540006946534620F00700854618B020B5FFF7EE
:100550002DFEBDE820404FF000064FF000074FF0A1
:1005600000084FF0000B21F00701AC46ACE8C009D1
:10057000ACE8C009ACE8C009ACE8C0098D467047DA
:1005800010B50446AFF300802046BDE81040FFF7E9
:10059000F9BD000000487047F80400200149182008
:1005A000ABBEFEE7260002007047FEE72DE9FC41E6
:1005B00083A18648FFF7CCFE08270026844D01243E
:1005C00000B36C71A878002842D101F085FB0021AE
:1005D000082380A20846009401F0FDFCCDE90074D8
:1005E000042300212820EA6801F0BEFC08237BA236
:1005F00000214820009401F0EEFC082379A219465E
:1006000000949AE07BA17148FFF7A2FE08B36E71D7
:10061000A8780028D8D101F05FFB002108236DA243
:100620000846009401F0D7FCCDE9007404230021B2
:100630002820EA6801F098FC082368A200214820DD
:10064000009401F0C8FCA4E001F0C5FC01F0E6FB59
:100650007AE06BA15D48FFF77BFE00282CD0EE60AE
:100660002E71A87800286FD101F036FB00210823F5
:1006700058A20846009401F0AEFCCDE900740423B2
:1006800000212820EA6801F06FFC082353A2002112
:100690004820009401F09FFC68794FF00803009413
:1006A00008B150A200E058A20821002001F093FCFC
:1006B00008235AA200943FE05DA14448FFF748FE9A
:1006C00000283CD0EC7000F099FC68614FF40048C1
:1006D0002C7100224146584800F08BFC0022414614
:1006E000564800F086FCA87870BB01F0F5FA0021AE
:1006F000082338A20846009401F06DFCCDE900748F
:10070000042300212820EA6801F02EFC082333A2EC
:1007100000214820009401F05EFC68794FF0080346
:10072000009408B12FA200E037A20821002001F0B8
:1007300052FC082342A200941021002084E7A879EB
:1007400000283AD0A87830B1AE71BDE8FC416421F0
:100750001E48FFF72EBE01F0BFFA002108231DA29C
:100760000846009401F037FCCDE900740423002111
:100770002820EA6801F0F8FB082318A2002148208D
:10078000009401F028FC687918B1082315A20094A0
:1007900002E008231CA200940821002001F01BFCA9
:1007A00008232BA210210020009401F014FC082340
:1007B0001021064A1820009446E7BDE8FC8100009D
:1007C000434F4E4E454354204F4B0000280000201D
:1007D00000000020436F756E743A000070656F7002
:1007E0006C650000424C453A20436F6E6E65637441
:1007F00065640000444953434F4E4E454354000046
:10080000636C656172000000424C453A2044697394
:10081000636F6E6E6563746564000000436C6561B0
:100820007220636F756E7420646F6E650000000047
:10083000616C657274000000000C0140000801400A
:100840004D616E75616C20616C61726D000000001D
:1008500052783A00704710B54FF4805000F0C8FA53
:100860004FF4005000F0C4FABDE810404FF480404F
:1008700000F0BEBA022000F0BBBA0000024901201D
:10088000887001F085BD00000000002072B6FEE710
:100890007CB5184C0020A070208900F0D1F801F040
:1008A0001BFA01250021082313A20846009501F038
:1008B00092FB0820CDE90005042300212820E268EE
:1008C00001F052FB08230EA200214820009501F000
:1008D00082FB60794FF00803009508B10AA200E09E
:1008E0000DA20821002001F076FBBDE87C4001F05C
:1008F00095BA000000000020436F756E743A000046
:1009000070656F706C650000424C453A20436F6E15
:100910006E65637465640000424C453A2044697317
:10092000636F6E6E656374656400000006490020A5
:10093000C8610648016941F004010161016941F0A3
:100940004001016170470000D800002000200240F3
:10095000064A0021D16106490A6942F002020A6191
:100960004861086940F0400008617047D8000020E5
:1009700000200240044B0022DA61044A136943F06C
:100980000103136101807047D8000020002002405D
:1009900014480022C168CB06134904D5CA6942F045
:1009A0000202CA611022C3685B0705D5CB6943F018
:1009B0000103CB6142F00402C369DB0707D0CB69B6
:1009C00043F00403CB61C16921F00101C161A2F5CB
:1009D0008071013901D0C2607047C16921F0010105
:1009E000C161704700200240D800002070B5054664
:1009F00000F004FB0646114C09E0681C07D025B145
:100A000000F0FCFA801BA84201D9032070BDE06809
:100A1000C007F2D1E068800601D52020E060E068E0
:100A2000C00605D4E069C00702D1E068400703D5DD
:100A3000FFF7AEFF012070BD002070BD0020024016
:100A400030B585B0044600F037F90020094D01218A
:100A500002950090CDE9031004A9684600F08EF8D5
:100A6000224600232946012000F0E6F800F0DAF8DB
:100A700005B030BD00FC010810B590F8211000222F
:100A8000022905D00421816380F82020012010BDB7
:100A900001680B6823F00E030B6001680B6823F0FC
:100AA00001030B6090F84030C46B012101FA03F39D
:100AB000636080F8211080F82020104610BD0000EF
:100AC00010B590F821100024022903D0042181637D
:100AD00001243DE001680A6822F00E020A60016804
:100AE0000A6822F001020A601A4A0168914201D1A3
:100AF000012121E0174A1432914201D110211BE05B
:100B0000144A2832914201D1891515E0114A3C322C
:100B1000914201D189140FE00E4A5032914202D124
:100B20004FF4803108E00B4A6432914202D14FF415
:100B3000801101E04FF08071064A083A51600121AE
:100B400080F82110002180F82010416B01B1884706
:100B5000204610BD0800024070B5044600F04EFA71
:100B60000546601C02D004480078044400F046FAB0
:100B7000401BA042FAD370BD180000202DE9F047B9
:100B8000054626480F460126017E01290FD0012186
:100B9000814601762868DFF888804CF250340228BC
:100BA00008D0A2462046FFF721FFA8B131E002207D
:100BB000BDE8F0872046FFF719FF08BB0120FFF7CB
:100BC000B5FE2046FFF712FFD8F81010064621F0B8
:100BD0000401C8F810101CE04FF0FF303860AC681A
:100BE00011E02046FFF7B4FE5046FFF7FFFED8F8AD
:100BF0001010060021F00201C8F8101001D03C606E
:100C000007E004F58064D5E9020100EB8120A042F1
:100C1000E7D8002189F818103046C9E7D80000202D
:100C2000002002400348016941F080010161002079
:100C300070470000002002402DE9F05F07461C4885
:100C400088460024017E15461E46012909D001214F
:100C5000814601764CF2503A5046FFF7C7FE18B174
:100C600022E00220BDE8F09F012F02D0022F00D029
:100C70000427D346DFF83CA0220128463146FFF77F
:100C8000A7FA81B208EB4400FFF774FE5846FFF75D
:100C9000ADFEDAF8102022F00102CAF8102018B9CF
:100CA000641CE4B2BC42E7D3002289F81820D9E7DB
:100CB000D800002000200240064900200A691206E0
:100CC00007D5054A4A60054A4A600969090600D500
:100CD000012070470020024023016745AB89EFCD1A
:100CE0002DE9FC41074600F089F9334C064620699E
:100CF000301AC8285ED901254FF00808022F0AD003
:100D0000B7F5805F18D00020B7F5005F1CD0B7F5AD
:100D1000804F45D04DE0607800284AD0A078002868
:100D200047D1E068401CE06019E00821002001F094
:100D300052F901F073F83CE0A07810B1FFF7A8FD7C
:100D400037E0FFF79BFD34E0A17831B1208908B18D
:100D50000A3800E06420208129E0E060207100F082
:100D6000BBFF0021082315A20846009501F033F9C6
:100D7000CDE90085042300212820E26801F0F4F881
:100D8000082310A200214820009501F024F9607981
:100D90004FF00803009508B10CA2C6E70FA2C4E704
:100DA000A17831B121896429D5D20A31218101F09C
:100DB000EFFA2661BDE8FC8100000020436F756EEC
:100DC000743A000070656F706C650000424C453AE3
:100DD00020436F6E6E65637465640000424C453A53
:100DE00020446973636F6E6E656374656400000010
:100DF000044910B50A68024202D00860FFF770FF8C
:100E000010BD0000140401402DE9F84FDFF8B8913F
:100E10000024A9F1040B23460F2709F1040AABF1C2
:100E2000040EC9E00125A5402A40AA427DD1674EA3
:100E3000D1F804C0ACEB0608B44532D014DCBCF1E8
:100E4000030F3AD009DCBCF1000F2AD0BCF1010F2E
:100E50001CD0BCF1020F31D11DE0BCF1110F17D035
:100E6000BCF1120F2AD119E0B8F5881F19D006DCA1
:100E7000B8F5803F15D0B8F5801F1FD111E0B8F547
:100E8000001F0ED0B8F5041F18D10AE0CB6815E09A
:100E9000CB681B1D12E0CB6808330FE0CB680C3326
:100EA0000CE08B682BB1012B4FF0080303D0456198
:100EB00004E0042302E0056100E00023FF2A01D8DA
:100EC000064601E000F104064FEA840501D9A5F1C8
:100ED0002005D6F8008007FA05FC28EA0C0803FA7A
:100EE00005F548EA0508C6F800804D68ED0062D5B2
:100EF000374DAE6946F00106AE61AD6924F00306D8
:100F000005F001050095334D06EB050CDCF80850A3
:100F1000A607360F07FA06F825EA0805DFF8B880B5
:100F2000404503D14FF0000817E044E0DFF8AC8003
:100F3000404502D14FF001080FE0DFF8A4804045A2
:100F400002D14FF0020808E0DFF89880404502D156
:100F50004FF0030801E04FF0040808FA06F848EAE9
:100F60000508CCF808804D68D9F80060ED024D46C0
:100F700001D5164300E096432E604D68DAF8006014
:100F8000AD02554601D5164300E096432E604D68EC
:100F9000DBF80060AD035D4601D5164300E09643E3
:100FA0002E604D68DEF80060ED03754601D51643EE
:100FB00000E096432E60641C0D682A46E5407FF4ED
:100FC00031AFBDE8F88F00000804014000001110A7
:100FD000001002400000014000080140000C0140E8
:100FE00000100140001401408068084000D001203A
:100FF00070470AB1016170470904FBE70148806846
:1010000070470000180000200248816802781144EF
:101010008160704718000020074810B5016841F052
:1010200010010160032000F075F80F2000F006F8B1
:1010300000F024F8002010BD0020024070B50D4DD6
:1010400004464FF47A712878B1FBF0F00A49096838
:10105000B1FBF0F000F0DCFA48B9102C07D2002206
:101060002146501E00F036F800206C6070BD012053
:1010700070BD000018000020240000200C4808B5B6
:10108000816941F001018161816901F001010091F3
:10109000C16941F08051C161C06900F08050009089
:1010A0000448416821F0E06141F00071416008BDF1
:1010B0000010024000000140002809DB00F01F0280
:1010C000012191404009800000F1E020C0F80011AA
:1010D00070470000F0B40E4B1B680C46C3F30223AC
:1010E000C3F10705042D00D90425191D072901D2D4
:1010F000002300E0DB1E012606FA05F1491E21400F
:1011000099409E40761E16403143F0BC01F099B9DB
:101110000CED00E0064900F0070208684FF6FF03F7
:10112000184040EA0220034A10430860704700005C
:101130000CED00E00000FA052DE9F0470F46050030
:1011400061D0434E306800F00700B84209D23068E1
:1011500020F0070038433060306800F00700B842E4
:1011600051D128683B4C810712D5400703D56068F0
:1011700040F4E06060602878000703D5606840F4C0
:10118000605060606068A96820F0F000084360600B
:101190002878C00728D06868012810D02168022864
:1011A00010D0890700292EDA616821F0030101437C
:1011B0006160FFF723FF804641F288390DE0216826
:1011C0008903EFE78901EDE7FFF718FFA0EB0801BE
:1011D000494502D90320BDE8F0876068696800F0DE
:1011E0000C00B0EB810FEFD1306800F00700B8427F
:1011F0000BD9306820F0070038433060306800F0C9
:101200000700B84201D00120E5E72878400705D55E
:101210006068E96820F4E0600843606028780007AF
:1012200006D56068296920F4605040EAC10060601A
:1012300000F038F86168084AC1F30311515CC840F6
:101240000649086006480068FFF7F8FE0020C2E77C
:1012500000200240001002406A27000824000020FD
:101260001C0000200448054900684968044AC1F38D
:101270000221515CC8407047240000200010024049
:101280007A2700080448054900684968044AC1F300
:10129000C221515CC8407047240000200010024069
:1012A0007A2700080E4A51680E4801F00C03042BFF
:1012B00011D0082B0FD10C48C1F38343C903C05C84
:1012C0000AD55168084AC1F34041921E515C054A53
:1012D0005043B0FBF1F070470449484370470000A9
:1012E0000010024000127A005A27000800093D0051
:1012F0002DE9F84F040070D02078C04DC00749D0C8
:101300006868C0F38100012807D06868C0F38100D5
:10131000022809D16868C00306D52868800339D53A
:1013200060680028E7D035E06068B0F5803F0BD0FA
:1013300010B1B0F5A02F11D0286820F480302860BB
:10134000286820F4802002E0286840F4803028607B
:10135000606890B1FFF752FE06460AE0286840F444
:1013600080202860F0E700BFFFF748FE801B64285C
:1013700073D828688003F7D50CE0FFF73FFE0646D8
:1013800005E000BFFFF73AFE801B6428F0D828680C
:101390008003F7D420789A4E80074FF001094FF070
:1013A000000839D5686810F00C0F07D06868C0F3E2
:1013B0008100022809D16868C00306D42868800724
:1013C00014D52069012808D110E02069B0B1C6F811
:1013D0000090FFF713FE074605E00AE1FFF70EFE57
:1013E000C01B0228C4D828688007F7D5286861691F
:1013F00020F0F80040EAC10028600DE0C6F8008047
:10140000FFF7FCFD074604E0FFF7F8FDC01B0228CC
:1014100023D828688007F7D4207800072CD579488E
:10142000A169D9B1C0F80090FFF7E8FD074604E0D4
:10143000FFF7E4FDC01B02280FD8686A8007F7D5C4
:1014400071484FF4FA510068B0FBF1F0009000BF12
:101450000098411E0091FAD20EE080E0C0F80080B2
:10146000FFF7CCFD074604E0FFF7C8FDC01B0228CC
:1014700075D8686A8007F7D42078400760D5E86996
:101480000027C00008D4E86940F08050E861E869AE
:10149000012700F0805000905C480168C90513D412
:1014A0000168834641F480710160FFF7A7FD824621
:1014B00006E000BFFFF7A2FDA0EB0A0064284ED8AB
:1014C000DBF80000C005F5D5E06801280AD008B1B6
:1014D000052813D0286A20F001002862286A20F02D
:1014E000040002E0286A40F001002862E06841F24E
:1014F000883B98B1FFF782FD82460BE0286A40F0F6
:1015000004002862EEE700BFFFF778FDA0EB0A01B8
:1015100059455AD8286A8007F6D50CE0FFF76EFDCA
:10152000824605E0FFF76AFDA0EB0A0159454CD859
:10153000286A8007F6D41FB1E86920F08050E8617E
:10154000E06988B36968C1F38101022944D00228A7
:10155000C6F8608004D0FFF751FD044638E034E05F
:10156000FFF74CFD074604E0FFF748FDC01B0228CB
:101570002BD828688001F7D4206AB0F5803F05D1C8
:101580006868A16820F4003008436860D4E9080165
:101590000843696821F4741108436860C6F86090D4
:1015A000FFF72CFD044606E025E000BFFFF726FD0F
:1015B000001B022809D828688001F7D51BE000BF6E
:1015C000FFF71CFD001B022802D90320BDE8F88F9D
:1015D00028688001F4D40EE00128F7D06868226AF8
:1015E00000F48031914204D1616A00F470108842A5
:1015F00001D00120EAE70020E8E7000000100240E7
:10160000000042428004424224000020007000405A
:1016100010B5401EB0F1807F01D3012010BD4FF006
:10162000E02460610F21601700F00BFF0020A06133
:1016300007202061002010BD70477047F8B5016891
:1016400004460868CA684B6910F00F0F4FF0000598
:1016500059D003F0010602F49077374365D0C107F3
:1016600005D0D10503D5616C41F0010161644107EA
:1016700005D5D90703D0616C41F00201616481078F
:1016800005D5D90703D0616C41F0040161640107FD
:1016900007D502F02001314303D0616C41F008010D
:1016A0006164616C00293AD0800604D5900602D5A9
:1016B000204600F056FD20684069616CC0F3801040
:1016C000090700D460B3204600F024FD206840697B
:1016D000400621D52068143050E8001F21F0400159
:1016E00040E80012002AF5D1E06BA8B16D494163D2
:1016F000E06BFFF7E5F9002811D0E06B416B01B01A
:10170000BDE8F040084783060FD593060DD5204667
:10171000BDE8F84000F025BD2046FFF78EFFF8BD7C
:101720002046FFF78AFF6564F8BD266B2023012E53
:101730007CD1C6067AD5D60678D508684868009068
:1017400048694FF00206400640D5E16B08684068E2
:101750000004000CE8D0A28D8242E5D9E0858869BA
:1017600020282DD020680C3050E8001F21F4807113
:1017700040E80012002AF5D12068143050E8001F1C
:1017800021F0010140E80012002AF5D12068143050
:1017900050E8001F21F0400140E80012002AF5D176
:1017A00084F84230256320680C3050E8001F21F097
:1017B000100140E80012002AF5D1E06BFFF75CF958
:1017C0006663A08DE18D401A81B22AE0A08DE18D83
:1017D000401A81B2E08D0028A6D00029A4D022684A
:1017E0000C3252E8000F20F4907042E80007002FFE
:1017F000F5D12068143050E8002F22F0010240E8B3
:101800000027002FF5D184F84230256320680C3082
:1018100050E8002F22F0100240E80023002BF5D101
:1018200066632046FFF708FFF8BDFFE705062BD5E6
:10183000150629D594F841002128F5D1A068B0F506
:10184000805F01D12069B0B1206A411C216221680A
:1018500000784860E08C401E0004000CE084E3D176
:101860002068C16821F08001C1602068C16841F032
:101870004001C160D8E7206A0088C0F308004860D2
:10188000206A801C2062E5E74006CDD55006CBD506
:10189000CA68204622F04002CA6084F8413000F055
:1018A000FFF8C1E70521000870B5040004D094F8E2
:1018B0004100002510B106E0012070BD84F84050C1
:1018C000204600F023F8242084F841002068C168F5
:1018D00021F40051C160204600F0A4FC2068016999
:1018E00021F4904101612068416921F02A014161A0
:1018F0002068C16841F40051C1606564202084F80B
:10190000410084F842006563002070BD30B585B0A9
:1019100000240094019402940394006818498842BA
:101920002BD11848C16941F40031C161C16901F48A
:1019300000310491816941F0040181618069124D97
:1019400000F0040004900420009002200190032085
:10195000039069462846FFF757FA0820CDE90004AE
:10196000694628460294FFF74FFA002202212620FA
:10197000FFF7B0FB2620FFF79FFB05B030BD00004E
:1019800000440040001002400008014090F842303E
:10199000202B01D00220704721B11AB1002303632C
:1019A00000F09CBC01207047124910B588421FD13D
:1019B0001148002301468279C979632A06D20F4C67
:1019C000A154521CD2B28271A35400E083710A293F
:1019D00004D00D2902D08079632801D3FEF7E6FDFB
:1019E00005490122BDE81040C91D0248FFF7CEBFDE
:1019F00010BD00008C000020000000202800002006
:101A00002DE9F843044690F84100984616460D46E5
:101A1000202802D00220BDE8F88385B17EB10020E5
:101A20006064212084F84100FFF7E8FAA68481462B
:101A3000E684A0682027B0F5805F02D003E0012093
:101A4000E9E7206910B12E4600250EE000260CE0E3
:101A50008021204600F05DFCA8B9C6B116F8010B44
:101A600021684860E08C401EE084E08C4B464FF0DB
:101A70000002CDF800800028EAD14FF04001204656
:101A800000F047FC40B184F841700320C3E735F80B
:101A9000020BC0F30800E3E784F841700020BAE7C6
:101AA0007047FEE770B501220E4D9403214628468B
:101AB000FFF79FFA0122560331462846FFF799FAAD
:101AC00000F048F8002221462846FFF792FA00F07D
:101AD00041F8002231462846FFF78BFABDE87040F6
:101AE00000F038B80010014070B50B4D4FF4804441
:101AF000002221462846FFF77CFA0122510328469E
:101B0000FFF777FA00F026F821462846BDE8704036
:101B10000122FFF76EBA00000010014070B50C4CB6
:101B2000012291032046FFF764FA00F013F8012226
:101B3000550329462046FFF75CFA00F00BF8002217
:101B400029462046FFF755FABDE8704000F002B87C
:101B5000001001400320401EC0B2FCD270470000BC
:101B60002DE9F04786B04FF000084448CDF80080DA
:101B7000CDF80480CDF80880CDF80C80816941F063
:101B800010018161816901F010010491816941F0C6
:101B900020018161816901F020010491816941F096
:101BA00004018161816901F004010491816941F0BE
:101BB000080181618069324E00F008004FF4C04492
:101BC0000490012221463046FFF713FA0122DFF884
:101BD000B490D70339464846FFF70BFADFF8A8A0C0
:101BE000012239465046FFF704FA009401240325E8
:101BF000694630460194CDE90245FFF705F9022612
:101C000022486946CDE9006050460296FFF7FCF88D
:101C10002020CDE90008694602965046FFF7F4F807
:101C20004FF4E04000901A48CDE901046946484667
:101C3000FFF7EAF8CDE9007469464846CDE9024568
:101C4000FFF7E2F8CDE9007469465046CDE9024558
:101C5000FFF7DAF8002201210720FFF73BFA0720FF
:101C6000FFF72AFA002211462820FFF733FA28202E
:101C7000FFF722FA06B0BDE8F0870000001002402E
:101C800000100140000C014000080140000011104C
:101C90000000211038B50E480C49002401604FF4B3
:101CA000E131C0E901140C21C460C0E90441846140
:101CB000C461FFF7F9FD08B1FEF7E8FD8DF80040BB
:101CC000012269460248FFF761FE38BD004400402A
:101CD0008C000020FEE7FEE730B40021084B0A46E6
:101CE0005FF0000003EBC004401CC0B262548028C7
:101CF000F8D3491CC9B20829F2D330BC00F08EB821
:101D0000F800002030B5CC0801F0070301259D4004
:101D1000EBB2064D05EBC005C808285C0AB11843B4
:101D200002E063EA0000C043285530BDF8000020FF
:101D300010B50021AE2000F06CF90021084600F03B
:101D400068F90021102000F064F90021402000F023
:101D500060F90021812000F05CF90021CF2000F023
:101D600058F90021A12000F054F90021C82000F00A
:101D700050F90021A62000F04CF90021A82000F025
:101D800048F900213F2000F044F90021D32000F061
:101D900040F90021084600F03CF90021D52000F070
:101DA00038F90021802000F034F90021D92000F01A
:101DB00030F90021F12000F02CF90021DA2000F0A8
:101DC00028F90021122000F024F90021DB2000F086
:101DD00020F90021302000F01CF90021202000F023
:101DE00018F90021022000F014F900218D2000F0E4
:101DF00010F90021142000F00CF9FFF76DFF00210D
:101E0000BDE81040AF2000F004B90246012000E018
:101E10005043491EC9B2FBD27047000070B5184E3E
:101E2000002400BF04F1B000C0B2002100F0F1F8BE
:101E30000021084600F0EDF80021102000F0E9F83C
:101E4000FFF730FE782000F001F9FFF767FE402031
:101E500000F0FCF8FFF762FE5FF0000506EBC5003E
:101E6000005D00F0F3F8FFF759FE6D1CEDB2802D18
:101E7000F4D3FFF739FE641CE4B2082CD2D370BD52
:101E8000F80000202DE9FC4F1C460E4682468B468A
:101E90000190082B0DD0600700D0012000EBD4008A
:101EA00061084843C0B28146203AD0B20090002079
:101EB0004BE00620F7E7082C13D00C2C18D0102C80
:101EC0001BD0182C44D10098234900EBC00000BF60
:101ED00001EB8001002711F80850E80712D00B9A97
:101EE00013E000981D4900EB400001EB4001F1E7D1
:101EF00000981B4900EB4000EAE71A49009801EB03
:101F00000011E7E70B9828B3002231465046FFF74F
:101F1000F9FE761C7F1C6D08FFB2F6B2082FDCD3E9
:101F20000AF1010000F0FF0A082C0AD00199AAEB7F
:101F30000100B0EB540F04D10BF108008A4600F009
:101F4000FF0B08F101005E46C0B280464845B2D39F
:101F5000BDE8FC8F0122D8E70E3400088227000874
:101F6000AA2900081E2E00082DE9F84F0025DDE9FA
:101F70000A691F4692468B468046082E00D10225EC
:101F800000241CE0381B401EC1B20A20FFF73DFFB1
:101F9000BAFBF0F00A21B0FBF1F201FB1200CDF820
:101FA000009080B13030C2B205EB560101FB0480D5
:101FB000C0B233465946FFF765FF641CE4B2BC4229
:101FC000E0D3BDE8F88F05EB560101FB0480C0B2F9
:101FD00033463022EEE72DE9F8411E461546884685
:101FE0000446079F0BE03346414620460097FFF723
:101FF00049FF082E0AD004EB5600C4B26D1C2A78A3
:10200000A2F120005E28EED9BDE8F881A41DE4B25B
:10201000F4E770B50C460546FFF744FD782000F064
:1020200015F8FFF77BFD0CB1402000E0002000F028
:102030000DF8FFF773FD284600F008F8FFF76EFD76
:10204000BDE87040FFF750BD704770472DE9F04183
:10205000124F002405464FF480487E14280601D50F
:10206000012200E0002241463846FEF7C2FFFFF79A
:1020700071FD012231463846FEF7BBFFFFF76AFDCE
:10208000002231463846FEF7B4FF6806641C050E90
:10209000E4B2082CE2D3BDE8F0810000001001405A
:1020A000FEF7B2BF30B58FB028216846FEF7A3F91E
:1020B00014210AA8FEF79FF901210804CDE90010B8
:1020C0000024029402250491CDE907504FF4E0105A
:1020D00009906846FFF70CF908B172B6FEE70F20C9
:1020E000CDE90A054FF48060CDE90C4002210AA831
:1020F0000E94FFF721F8002801D072B6FEE70FB06A
:1021000030BD704710B5406A0021C185C184FFF71A
:1021100094FA10BD01680C3151E8002F22F490723E
:1021200041E80023002BF5D10168143151E8002F5C
:1021300022F0010241E80023002BF5D1016B0129B7
:1021400009D101680C3151E8002F22F0100241E85A
:102150000023002BF5D1202180F8421000210163DB
:10216000704708B590F84210222901D0022008BD1E
:1021700082684FF480539A4201D1016921B1816A8A
:102180009A421BD04AB10AE00268816A5268C2F3DF
:1021900008020A80816A891C08E0026972B102683B
:1021A000526802F07F020A70816A491C8162C18D07
:1021B000491E0904090CC18503D01BE0026852685E
:1021C000F1E70168CA6822F02002CA600168CA68A3
:1021D00022F48072CA6001684A6922F001024A61F1
:1021E000202180F8421000214163026B012A03D0B4
:1021F000FFF7DAFB002008BD016301680C3151E8EC
:10220000002F22F0100241E80023002BF5D10168D5
:102210000A68D20602D50A6849680091818DFFF7E5
:102220000BFAE7E770B5044600680169E26821F43B
:102230004051114301612169A06808436169084365
:102240002168CA6841F20C639A430243CA6020685D
:102250004169A26921F44071114341611E4920681E
:10226000884202D1FFF70EF801E0FEF7FBFF00EB1A
:10227000C00101EB0012606864218000B2FBF0F342
:10228000B3FBF1F36FF018067343B2FBF0F5B2FB4A
:10229000F0F605EB8305322303EB0515B5FBF1F5ED
:1022A000B6FBF1F605F0F00505EB0615B2FBF0F60E
:1022B000B2FBF0F0B0FBF1F06FF01802504306EB08
:1022C000800003EB0010B0FBF1F0216800F00F007C
:1022D0002844886070BD000000380140816282851A
:1022E000C28500214164222180F84210016921B198
:1022F0000168CA6842F48072CA6001684A6942F0A3
:1023000001024A610068C16841F02001C1600020FB
:1023100070472DE9F843984617460D460446089E37
:1023200024E0701C22D0FEF769FEA0EB0800B0424A
:102330001AD8CEB12068C168490717D5802D15D0AD
:10234000402D13D00168C94309070FD40168002547
:10235000406800902046FFF7DDFE0820606484F8A6
:1023600040500120BDE8F8830320FBE720680068A7
:1023700035EA000004D00020B842D2D00020F1E7B6
:102380000120F9E70148FFF759B900008C0000204F
:102390001CB5FFF7A1FC01240021082317A2084661
:1023A0000094FFF718FE082319A219460020009494
:1023B000FFF711FE0820CDE9000418480323082187
:1023C00002893820FFF7D0FD082315A219465020B6
:1023D0000094FFF700FE082313A2102100200094B0
:1023E000FFF7F9FD082313A2182100200094FFF73E
:1023F000F2FDBDE81C40FFF711BD00005365747489
:10240000696E67205468726573686F6C64000000C1
:102410005468726573686F6C643A000000000020B5
:1024200070656F706C6500004B4559323A202D3154
:10243000300000004B4559333A202B31300000006A
:10244000FEE70907090E002804DB00F1E02080F810
:102450000014704700F00F0000F1E02080F8141D18
:102460007047000090B0FEF7D7FDFFF71BFEFFF7A7
:1024700077FBFFF75DFC4FF40048DFF820A2012254
:10248000444641465046FEF7B4FD854E01222146A2
:102490003046FEF7AEFDFFF7FDFB82480088824C18
:1024A000642801D8208103E005202081FEF7C8FAC6
:1024B000FFF712FC0125002108237CA208460095A5
:1024C000FFF789FD4FF00809CDE900954F46042339
:1024D00000212820E268FFF747FD082375A20021AC
:1024E00048200095FFF777FD082374A219460020C5
:1024F0000095FFF770FDCDE90075032322890821BF
:102500004020FFF731FD08236FA210210020009525
:10251000FFF761FDFFF782FC002720213046FEF720
:1025200063FD012808D0277067702189E068884220
:1025300068D9E07850B168E02078052804D2401CC2
:10254000C0B220700528F0D36570EEE7207900282E
:102550007ED1E570FEF752FD606100224146504693
:10256000FEF747FD002241463046FEF742FD257149
:10257000A078002836D1FFF7AFFB002108234BA23B
:1025800008460095FFF727FDCDE9009504230021BB
:102590002820E268FFF7E8FC082346A20021482033
:1025A0000095FFF718FD08234CA21946002000955E
:1025B000FFF711FD082341A2102100200095FFF72D
:1025C0000AFDCDE900950323228910214020FFF761
:1025D000CBFC082347A2182100200095FFF7FBFC45
:1025E000FFF71CFC238947A102A8E268FDF704FE5F
:1025F00002A8FDF7BFFE82B24FF0FF3302A94D489B
:10260000FFF7FEF9E078002844D0FEF7F7FC616997
:10261000401A41F2883188423CD9E7700122414694
:102620005046FEF7E6FC012241463046FEF7E1FC4B
:10263000A07800282ED1FFF74FFB002108231BA212
:1026400008460095FFF7C7FCCDE90095042300E09C
:1026500020E000212820E268FFF786FC082315A26D
:10266000002148200095FFF7B6FC082332A2194646
:1026700000200095FFF7AFFC60794FF0080300954C
:1026800008B131A200E010A210210020FFF7A3FC46
:10269000FFF7C4FB3220FEF75FFA3EE7000C014073
:1026A0000008014000FC010800000020436F756E27
:1026B000743A000070656F706C6500005468726554
:1026C00073686F6C643A0000424C453A2044697369
:1026D000636F6E6E6563746564000000414C415227
:1026E0004D21204F766572207468726573686F6C37
:1026F00064000000416C61726D20747269676765E7
:1027000072656400414C41524D3A205065646573D6
:10271000747269616E20636F756E7420256C64201D
:102720006F766572207468726573686F6C642025BB
:10273000640D0A008C000020416C61726D2073747E
:102740006F70706564000000424C453A20436F6E24
:102750006E656374656400000102020304050607E8
:1027600008090A0B0C0D0E0F1010000000000000ED
:10277000000001020304060708090000000001022E
:1027800003040000000000000000002F0000000013
:102790000700070000147F147F1400242A7F2A12E8
:1027A00000626408132300364955225000000503D7
:1027B000000000001C224100000041221C00001407
:1027C000083E08140008083E0808000000A0600049
:1027D00000080808080800006060000000201008D9
:1027E0000402003E5149453E0000427F4000004245
:1027F00061514946002141454B31001814127F10A8
:10280000002745454539003C4A49493000017109D6
:10281000050300364949493600064949291E00008A
:102820003636000000005636000000081422410031
:102830000014141414140000412214080002015161
:10284000090600324959513E007C1211127C007F6A
:1028500049494936003E41414122007F4141221C05
:10286000007F49494941007F09090901003E41496A
:10287000497A007F0808087F0000417F410000205E
:1028800040413F01007F08142241007F404040400A
:10289000007F020C027F007F0408107F003E414150
:1028A000413E007F09090906003E4151215E007F3B
:1028B000091929460046494949310001017F0101B2
:1028C000003F4040403F001F2040201F003F403855
:1028D000403F006314081463000708700807006194
:1028E0005149454300007F41410000552A552A5572
:1028F000000041417F00000402010204004040400A
:102900004040000001020400002054545478007F2D
:102910004844443800384444442000384444487F04
:1029200000385454541800087E0901020018A4A469
:10293000A47C007F080404780000447D400000402F
:1029400080847D00007F102844000000417F40000B
:10295000007C04180478007C08040478003844449F
:10296000443800FC242424180018242418FC007C7B
:102970000804040800485454542000043F444020F4
:10298000003C4040207C001C2040201C003C40308B
:10299000403C004428102844001CA0A0A07C004417
:1029A00064544C4414141414141400000000000067
:1029B0000000000000000000FC0000000000020019
:1029C0000000000C020C020000000000000090D08B
:1029D000BCD0BC900003000300001824FE448C000F
:1029E0000302070201001824D8B04C800003000144
:1029F0000201C038E438E0000102020102020806C8
:102A000000000000000000000000000000F80402C8
:102A1000000000010204000204F8000000040201AA
:102A200000009060F860900000000100000020208D
:102A3000FC20200000000100000000000000000059
:102A400008060000000020202020200000000000D8
:102A500000000000000000000002000000000080F4
:102A6000601C0200040300000000F8040404F800E5
:102A70000102020201000008FC0000000002030243
:102A80000000188444241800030202020200080413
:102A90002424D80001020202010040B088FC80001A
:102AA0000000000302003C242424C40001020202AE
:102AB0000100F824242CC0000102020201000C04D1
:102AC000E41C0400000003000000D8242424D800E3
:102AD00001020202010038444444F80000030202EB
:102AE00001000000100000000000020000000000D3
:102AF00020000000000006000000002050880402B2
:102B000000000000010290909090900000000000F2
:102B10000000000204885020000201000000180498
:102B2000C4241800000002000000F804E494F80037
:102B300001020202020000E09CF08000020300009B
:102B4000030204FC2424D800020302020100F8045A
:102B500004040C0001020202010004FC0404F80059
:102B600002030202010004FC24740C0002030202AE
:102B7000030004FC24740C00020302000000F008AF
:102B80000444CC4000010202010004FC2020FC04AB
:102B90000203000003020404FC0404000202030216
:102BA0000200000404FC040406040403000004FC06
:102BB00024D00C0402030200030204FC0400000001
:102BC000020302020203FC3CC03CFC0003000300C1
:102BD000030004FC30C4FC04020302000300F804F8
:102BE0000404F80001020202010004FC242418007D
:102BF000020302000000F8848404F80001020207C6
:102C0000050004FC24649800020302000302182457
:102C100024448C000302020201000C04FC040C009A
:102C200000020302000004FC0000FC040001020298
:102C30000100047C80E01C040000030000001CE094
:102C40003CE01C00000300030000049C609C0400A6
:102C5000020300030200041CE01C04000002030243
:102C600000000C84641C0400020302020300000044
:102C7000FE020200000007040400000E30C0000045
:102C8000000000010200000202FE00000004040730
:102C9000000000040204000000000000000000002A
:102CA00000000000080808080808000002000000F2
:102CB0000000000000000040A0A0C00000010202CF
:102CC000030204FC2020C00000030202010000C037
:102CD0002020600000010202020000C02024FC004D
:102CE00000010202030200C0A0A0C0000001020215
:102CF00002000020F8242404000203020200004025
:102D0000A0A0602000070A0A0A0404FC2020C000DA
:102D10000203020003020020E4000000000203029C
:102D20000000000020E4000008080807000004FC80
:102D300080E020200203020003020404FC000000E3
:102D4000020203020200E020E020C00003000300B2
:102D5000030020E02020C00002030200030200C0A4
:102D60002020C00000010202010020E02020C0005D
:102D7000080F0A02010000C02020E0000001020A42
:102D80000F0820E040202000020302000000006045
:102D9000A0A020000002020203000020F820000092
:102DA00000000102020020E00020E0000001020219
:102DB000030220E02080602000000301000060800A
:102DC000E0806000000300030000206080602000BD
:102DD00002030003020020E02080602008080701B1
:102DE00000000020A060200000020302020000009A
:102DF00020DE0200000000070400000000FF0000C9
:102E00000000000F00000002DE20000000040700A8
:102E100000000201020404020000000000000000A3
:102E200000000000000000000000000000000000A2
:102E300000F8000000000000003330000000001027
:102E40000C06100C0600000000000000000040C04E
:102E50007840C0784000043F04043F040400007040
:102E600088FC08300000001820FF211E0000F00838
:102E7000F000E018000000211C031E211E0000F0DD
:102E80000888700000001E21232419272110101625
:102E90000E00000000000000000000000000000024
:102EA00000E01804020000000007182040000002A3
:102EB0000418E00000000040201807000000404017
:102EC00080F0804040000202010F01020200000079
:102ED00000F0000000000101011F010101000000DD
:102EE00000000000000080B0700000000000000042
:102EF00000000000000000010101010101010000CB
:102F00000000000000000030300000000000000061
:102F1000000080601804006018060100000000E056
:102F200010080810E000000F102020100F00001003
:102F300010F8000000000020203F2020000000705A
:102F40000808088870000030282422213000003052
:102F50000888884830000018202020110E0000004A
:102F6000C02010F8000000070424243F240000F8CB
:102F70000888880808000019212020110E0000E0B0
:102F8000108888180000000F112020110E00003852
:102F90000808C83808000000003F0000000000706A
:102FA000880808887000001C222121221C0000E0F3
:102FB00010080810E0000000312222110F0000006C
:102FC00000C0C00000000000003030000000000021
:102FD0000080000000000000806000000000000091
:102FE000804020100800000102040810200040402A
:102FF000404040404000040404040404040000086D
:103000001020408000000020100804020100007021
:1030100048080808F0000000003036010000C03009
:10302000C828E810E0000718272423140B0000002C
:10303000C038E0000000203C23020227382008F8B6
:10304000888888700000203F202020110E00C030AA
:10305000080808083800071820202010080008F881
:1030600008080810E000203F202020100F0008F87A
:103070008888E8081000203F20202320180008F846
:103080008888E8081000203F200003000000C030BE
:1030900008080838000007182020221E020008F83F
:1030A00008000008F808203F210101213F20000806
:1030B00008F8080800000020203F20200000000041
:1030C0000808F8080800C08080807F00000008F829
:1030D00088C028180800203F20012638200008F862
:1030E000080000000000203F20202020300008F8C9
:1030F000F800F8F80800203F003F003F200008F8E3
:1031000030C00008F808203F200007183F00E010FA
:1031100008080810E0000F10202020100F0008F809
:1031200008080808F000203F210101010000E0101C
:1031300008080810E0000F18242438504F0008F841
:10314000888888887000203F2000030C30200070A1
:103150008808080838000038202121221C0018089F
:1031600008F8080818000000203F2000000008F8B8
:1031700008000008F808001F202020201F00087801
:10318000880000C83808000007380E010000F80861
:1031900000F80008F800033C0700073C030008188B
:1031A00068808068180820302C03032C30200838F1
:1031B000C800C83808000000203F200000001008A8
:1031C0000808C838080020382621202018000000F0
:1031D00000FE020202000000007F40404000000CA0
:1031E00030C000000000000000010638C0000002EE
:1031F0000202FE000000004040407F00000000008E
:1032000004020202040000000000000000000000B0
:1032100000000000000080808080808080800002AC
:103220000204000000000000000000000000000098
:103230008080808000000019242222223F2008F88C
:10324000008080000000003F112020110E000000CF
:10325000008080800000000E11202020110000005E
:1032600000808088F800000E112020103F20000010
:10327000808080800000001F222222221300008014
:1032800080F0888888180020203F2020000000005F
:10329000808080808000006B94949493600008F894
:1032A000008080800000203F210000203F2000801F
:1032B0009898000000000020203F2020000000001F
:1032C00000809898000000C08080807F000008F88F
:1032D000000080808000203F24022D302000000864
:1032E00008F8000000000020203F2020000080801F
:1032F000808080808000203F20003F20003F808031
:10330000008080800000203F210000203F2000003E
:10331000808080800000001F202020201F008080EF
:1033200000808000000080FFA12020110E0000001E
:10333000008080808000000E112020A0FF8080800F
:1033400080008080800020203F21200001000000BC
:103350008080808080000033242424241900008091
:1033600080E0808000000000001F2020000080809E
:10337000000000808000001F202020103F2080805F
:1033800080000080808000010E30080601008080EF
:103390000080008080800F300C030C300F00008014
:1033A0008000808080000020312E0E31200080803F
:1033B00080000080808080818E701806010000806F
:1033C0008080808080000021302C2221300000008D
:1033D0000000807C020200000000003F404000002E
:1033E0000000FF00000000000000FF0000000002DD
:1033F000027C800000000040403F0000000000060A
:1034000001010202040400000000000000000000AE
:1034100000000000000000000000000000000000AC
:10342000000000000000000000000000000000009C
:1034300000000000000000F0F0F0000000000000BC
:10344000000000017F010000000000000000001CDF
:103450001C1C0000000000008060301C8C60301CD0
:103460000C00000000000000000000000000000050
:1034700000000000000000000000000000E000006C
:10348000000000E000000086E69F86868686E69FB4
:10349000860000011F01010101011F010100000060
:1034A00080C06020F820E0C00000000003070C1876
:1034B000FF70E18100000000070F10107F100F0760
:1034C00000008060206080000000E02000000F30DD
:1034D00020309F70DC371030C0000000100E030059
:1034E0000718101807000000C02020E0C0000000EE
:1034F000000080E01F38E88703C43C040000070F89
:103500001810100B070D1010080000808C4C3800AC
:1035100000000000000000000000000000000000AB
:10352000000000000000000000000000000000009B
:103530000000000080E0300804000000000000FEF1
:10354000FF0100000000000000000000030F182031
:10355000400000040830E08000000000000000008F
:10356000000001FFFE0000000000004020180F03D3
:10357000000000000000000000000000C00000008B
:103580000000004266663C18FF183C666642000078
:103590000000000003000000000000000000000028
:1035A000800000000000001010101010FF1010101C
:1035B00010100000000000000300000000000000E8
:1035C00000000000000000000000000000000000FB
:1035D00000000000000000808C4C3800000000005B
:1035E00000000000000000000000000000000010CB
:1035F000101010101010101010000000000000003B
:1036000000000000000000000000000000000000BA
:1036100000000000000000000000000000000000AA
:103620001C1C1C0000000000000000000000000046
:103630000000E0380C000000000080701C03000057
:1036400000000060380E01000000000000000000D3
:1036500080C060202060C080000000FEFF010000EC
:10366000000001FFFE000001070E181010180E07E1
:1036700001000000808080C0E00000000000000029
:10368000000000FFFF000000000000001010101FED
:103690001F10101000000080402020202060C080FB
:1036A000000000030300804020381F070000001CBA
:1036B0001A1918181818181F00000080C0202020A0
:1036C00060C080000000000303001010182FE78086
:1036D000000000070F10101010180F070000000066
:1036E00000000000C0E0F000000000C0B08886814B
:1036F00080FFFF808000000000000010101F1F10DE
:1037000010000000E0606060606060600000000029
:103710003F1008080818F0E0000000070B10101018
:10372000101C0F030000000080C040202020E0C0DB
:10373000000000FCFF211008080818F0E00000015C
:10374000070C18101010080F03000000C0E06060A4
:10375000606060E06000000003000000E018070007
:10376000000000000000001F1F000000000000809B
:10377000C0602020202060C080000087EF2C181837
:10378000303068CF830000070F0810101010180F9A
:1037900007000000C0C020202020C0800000001FC3
:1037A0003F604040402010FFFE0000000C1C101045
:1037B00010080F03000000000000000000000000DF
:1037C000000000000000000E0E0E000000000000CF
:1037D0000000001C1C1C0000000000000000000095
:1037E00000000000000000000000000C0C000000C1
:1037F0000000000000000058380000000000000039
:1038000000000000008040201000000010284482CA
:103810000100000000000000000000000102040898
:103820001000000000000000000000000000008404
:1038300084848484848484848400000000000000E4
:103840000000000000000000102040800000000088
:103850000000000000000000018244281000000069
:103860001008040201000000000000C02020101019
:10387000101030E0C0000003030000F010080C0737
:103880000300000000001C1C1C00000000000000E1
:1038900000C0406020202040C00000FCFF01F00E6E
:1038A00003C1FE03807F0001070E081111101109EA
:1038B00004020000000080E0E000000000000000C2
:1038C000807C4340477FF880000010181F100000E4
:1038D0000000131F1C1020E0E02020202060C0808A
:1038E000000000FFFF10101010182FE78000101FBD
:1038F0001F1010101010180F0700000080C040208B
:1039000020202060E00000FCFF010000000000001B
:1039100001000001070E181010100804030020E039
:10392000E02020202040C080000000FFFF000000B9
:10393000000001FFFE00101F1F10101018080E07D6
:10394000010020E0E020202020202060800000FFF7
:10395000FF101010107C00000000101F1F1010102E
:1039600010101018060020E0E020202020206060C9
:10397000800000FFFF101010107C00000100101FDD
:103980001F100000000000000000000080C0602048
:10399000202040E0000000FCFF0100004040C0C1CA
:1039A00040400001070E181010100F0F000020E01B
:1039B000E0200000000020E0E02000FFFF101010D9
:1039C000101010FFFF00101F1F1000000000101F3C
:1039D0001F100000202020E0E02020200000000038
:1039E000000000FFFF000000000000001010101F8A
:1039F0001F101010000000000000202020E0E02038
:103A0000202000000000000000FFFF000000006018
:103A1000E0808080C07F3F00000020E0E0200000C8
:103A200020A06020200000FFFF30187CE3C00000D1
:103A30000000101F1F10000001131F1C181020E0B1
:103A4000E020000000000000000000FFFF00000078
:103A5000000000000000101F1F10101010101018A0
:103A6000060020E0E0E000000000E0E0E02000FFD1
:103A7000013FFEC0E01E01FFFF00101F1000031FEA
:103A80000300101F1F1020E0E0C000000000002015
:103A9000E02000FF0003071C78E08000FF00101FFB
:103AA000100000000000030F1F00000080C0602015
:103AB0002060C080000000FEFF010000000000FF49
:103AC000FE000001070E181010180C07010020E07E
:103AD000E0202020202060C0800000FFFF20202068
:103AE0002020301F0F00101F1F10000000000000DA
:103AF0000000000080C060202060C080000000FE48
:103B0000FF010000000000FFFE000001070E111180
:103B1000133C7C67210020E0E0202020202060C0B2
:103B2000800000FFFF101030F0D0080F0700101FBA
:103B30001F10000000030F1C10100080C060202028
:103B400020204040E00000070F0C1818303060E0E3
:103B50008100001F0C0810101010180F0700806063
:103B6000202020E0E020202060800100000000FFF5
:103B7000FF000000000100000000101F1F100000E7
:103B8000000020E0E020000000000020E02000FF16
:103B9000FF00000000000000FF0000070F181010D9
:103BA0001010100807002060E0E02000000020E076
:103BB00060200000077FF88000807C030000000088
:103BC0000000071F1C070000000020E0E02000E0CC
:103BD000E0200020E0200007FFF8E01FFFFCE01FCE
:103BE00000000000031F0300011F0300000000206D
:103BF00060E0A0000020E0602000000000038F7C57
:103C0000F8C6010000000010181E130001171F184D
:103C100010002060E0E02000000020E060200000B4
:103C200001073EF8E0180700000000000010101F18
:103C30001F101000000000806020202020A0E0E085
:103C4000200000000000C0F03E0F03000000001044
:103C50001C1F17101010101806000000000000FCB8
:103C60000404040404000000000000FF0000000041
:103C7000000000000000007F404040404000000085
:103C800010E0000000000000000000000000031C25
:103C900060800000000000000000000000030C70C5
:103CA000800000000404040404FC00000000000084
:103CB0000000000000FF0000000000004040404005
:103CC000407F0000000000000010080C040C0810E9
:103CD00000000000000000000000000000000000E4
:103CE00000000000000000000000000000000000D4
:103CF00000000000000000000000000000000000C4
:103D000000008080808080808080808080800000B3
:103D1000000404080800000000000000000000008B
:103D20000000000000000000000000000000000093
:103D30000000000000000000000000000000000083
:103D400098D844642424FCF80000000F1F181010B9
:103D500010081F1F10180020E0F0000000000000F5
:103D600000000000FFFF180804040CF8F000000039
:103D70001F0F18101010180F0300000000000000A3
:103D800000000000000000E0F8180404043C3800C3
:103D9000000000030F0C10101010080600000000B7
:103DA000000000000020E0F0000000E0F81C040427
:103DB0000408FFFF000000030F18101010081F0F69
:103DC00008000000000000000000000000000000EB
:103DD000E0F8484444444C7870000000030F0C188D
:103DE0001010100804000000000080C0602020E0D7
:103DF000C00000040404FFFF0404040400000000E9
:103E000010101F1F10101000000000000000000024
:103E1000000000000000000070F88C04048CF874AE
:103E2000040C007076CF8D8D8D89C87870000020CD
:103E3000E0F000000000000000000000FFFF0804A8
:103E40000404FCF8000000101F1F100000101F1FCA
:103E50001000000000000060600000000000000092
:103E6000040404FCFC000000000000001010101FFF
:103E70001F10101000000000000000000060600033
:103E8000000000000000040404FCFC00000000002E
:103E9000C0C08080C07F3F0000000020E0F0000034
:103EA0000000000000000000FFFF80C0F41C0404BC
:103EB000000000101F1F1100031F1C101000000045
:103EC000202020E0F000000000000000000000FFC3
:103ED000FF000000000000001010101F1F10101045
:103EE000000000000000000000000000000004FCD2
:103EF000FC0804FCFC0804FCFC00101F1F10001F41
:103F00001F10001F1F100000000000000000000034
:103F100000000004FCFC08080404FCF80000001089
:103F20001F1F100000101F1F1000000000000000E5
:103F300000000000000000E0F0180C04040C18F071
:103F4000E00000030F0C101010100C0F0300000015
:103F5000000000000000000000000004FCFC080459
:103F600004040CF8F0000080FFFF889010101C0F74
:103F7000030000000000000000000000000000E05E
:103F8000F81C04040408F8FC000000030F181010CB
:103F90009088FFFF8000000000000000000000008B
:103FA0000000040404FCFC100804040C0C001010B5
:103FB000101F1F1010100000000000000000000083
:103FC00000000000000000003078CCC48484840C21
:103FD0001C0000001E1810101011190F0600000020
:103FE000000000C000000000000000040404FFFF07
:103FF000040404000000000000000F1F1010100C4B
:1040000000000000000000000000000000000004AC
:10401000FCFE00000004FCFE000000000F1F181052
:1040200010081F0F08000000000000000000000042
:10403000000000040C3CFCC40000C43C0C04000064
:104040000000010F1E0E0100000000000000000033
:10405000000000000000043CFCC400E47CFC848000
:104060007C040000071F070000071F070000000076
:10407000000000000000000000000004041C7CE4BC
:10408000C0341C0404000010101C1601131F1C185F
:10409000100000000000000000000000000000040C
:1040A0000C3CFCC400C43C0404000000C080C137C8
:1040B0000E010000000000000000000000000000F1
:1040C000000000001C0404C4F47C1C040000000078
:1040D000101C1F17111010180E0000000000000027
:1040E00000F80C04000000000000001028EF0000A1
:1040F0000000000000000000003F604000000000E1
:1041000000000000FF0000000000000000000000B0
:10411000FF0000000000000000000000FF000000A1
:1041200000000000040CF800000000000000000087
:104130000000EF28100000000000000040603F0079
:1041400000000000000000180602020408102020F1
:104150003008000000000000000000000000000027
:104160000000000000000000000000008C4100087A
:10417000000000202800000028010008B4410008C9
:1041800028000020300B000044010008000000005F
:1041900000000000320000000000000000000000ED
:1041A00000000000010000001000000000000000FE
:0441B00000127A007F
:04000005080000ED02
:00000001FF
